{
  "_format": "hh-sol-artifact-1",
  "contractName": "Giveaway",
  "sourceName": "contracts/Giveaway.sol",
  "abi": [
    {
      "inputs": [
        {
          "internalType": "uint256",
          "name": "_servicePercent",
          "type": "uint256"
        }
      ],
      "stateMutability": "nonpayable",
      "type": "constructor"
    },
    {
      "anonymous": false,
      "inputs": [
        {
          "indexed": true,
          "internalType": "address",
          "name": "previousOwner",
          "type": "address"
        },
        {
          "indexed": true,
          "internalType": "address",
          "name": "newOwner",
          "type": "address"
        }
      ],
      "name": "OwnershipTransferred",
      "type": "event"
    },
    {
      "inputs": [
        {
          "internalType": "uint256",
          "name": "id",
          "type": "uint256"
        },
        {
          "internalType": "uint256",
          "name": "luckyNumberId",
          "type": "uint256"
        }
      ],
      "name": "buyTicket",
      "outputs": [],
      "stateMutability": "payable",
      "type": "function"
    },
    {
      "inputs": [
        {
          "internalType": "string",
          "name": "title",
          "type": "string"
        },
        {
          "internalType": "string",
          "name": "description",
          "type": "string"
        },
        {
          "internalType": "string",
          "name": "image",
          "type": "string"
        },
        {
          "internalType": "uint256",
          "name": "prize",
          "type": "uint256"
        },
        {
          "internalType": "uint256",
          "name": "fee",
          "type": "uint256"
        },
        {
          "internalType": "uint256",
          "name": "expiresAt",
          "type": "uint256"
        }
      ],
      "name": "createGiveaway",
      "outputs": [],
      "stateMutability": "nonpayable",
      "type": "function"
    },
    {
      "inputs": [
        {
          "internalType": "uint256",
          "name": "id",
          "type": "uint256"
        }
      ],
      "name": "getGiveaway",
      "outputs": [
        {
          "components": [
            {
              "internalType": "uint256",
              "name": "id",
              "type": "uint256"
            },
            {
              "internalType": "string",
              "name": "title",
              "type": "string"
            },
            {
              "internalType": "string",
              "name": "description",
              "type": "string"
            },
            {
              "internalType": "string",
              "name": "image",
              "type": "string"
            },
            {
              "internalType": "uint256",
              "name": "prize",
              "type": "uint256"
            },
            {
              "internalType": "uint256",
              "name": "fee",
              "type": "uint256"
            },
            {
              "internalType": "uint256",
              "name": "participants",
              "type": "uint256"
            },
            {
              "internalType": "bool",
              "name": "drawn",
              "type": "bool"
            },
            {
              "internalType": "address",
              "name": "owner",
              "type": "address"
            },
            {
              "internalType": "uint256",
              "name": "createdAt",
              "type": "uint256"
            },
            {
              "internalType": "uint256",
              "name": "expiresAt",
              "type": "uint256"
            }
          ],
          "internalType": "struct Giveaway.GiveawayData",
          "name": "",
          "type": "tuple"
        }
      ],
      "stateMutability": "view",
      "type": "function"
    },
    {
      "inputs": [
        {
          "internalType": "uint256",
          "name": "id",
          "type": "uint256"
        }
      ],
      "name": "getGiveawayLuckyNumbers",
      "outputs": [
        {
          "internalType": "string[]",
          "name": "",
          "type": "string[]"
        }
      ],
      "stateMutability": "view",
      "type": "function"
    },
    {
      "inputs": [
        {
          "internalType": "uint256",
          "name": "id",
          "type": "uint256"
        }
      ],
      "name": "getGiveawayParticipants",
      "outputs": [
        {
          "components": [
            {
              "internalType": "address",
              "name": "account",
              "type": "address"
            },
            {
              "internalType": "string",
              "name": "giveawayNumber",
              "type": "string"
            },
            {
              "internalType": "bool",
              "name": "paid",
              "type": "bool"
            }
          ],
          "internalType": "struct Giveaway.ParticipantStruct[]",
          "name": "",
          "type": "tuple[]"
        }
      ],
      "stateMutability": "view",
      "type": "function"
    },
    {
      "inputs": [
        {
          "internalType": "uint256",
          "name": "id",
          "type": "uint256"
        }
      ],
      "name": "getGiveawayResult",
      "outputs": [
        {
          "components": [
            {
              "internalType": "uint256",
              "name": "id",
              "type": "uint256"
            },
            {
              "internalType": "bool",
              "name": "completed",
              "type": "bool"
            },
            {
              "internalType": "bool",
              "name": "paidout",
              "type": "bool"
            },
            {
              "internalType": "uint256",
              "name": "timestamp",
              "type": "uint256"
            },
            {
              "internalType": "uint256",
              "name": "sharePerWinner",
              "type": "uint256"
            },
            {
              "components": [
                {
                  "internalType": "address",
                  "name": "account",
                  "type": "address"
                },
                {
                  "internalType": "string",
                  "name": "giveawayNumber",
                  "type": "string"
                },
                {
                  "internalType": "bool",
                  "name": "paid",
                  "type": "bool"
                }
              ],
              "internalType": "struct Giveaway.ParticipantStruct[]",
              "name": "winners",
              "type": "tuple[]"
            }
          ],
          "internalType": "struct Giveaway.GiveawayResultStruct",
          "name": "",
          "type": "tuple"
        }
      ],
      "stateMutability": "view",
      "type": "function"
    },
    {
      "inputs": [],
      "name": "getGiveaways",
      "outputs": [
        {
          "components": [
            {
              "internalType": "uint256",
              "name": "id",
              "type": "uint256"
            },
            {
              "internalType": "string",
              "name": "title",
              "type": "string"
            },
            {
              "internalType": "string",
              "name": "description",
              "type": "string"
            },
            {
              "internalType": "string",
              "name": "image",
              "type": "string"
            },
            {
              "internalType": "uint256",
              "name": "prize",
              "type": "uint256"
            },
            {
              "internalType": "uint256",
              "name": "fee",
              "type": "uint256"
            },
            {
              "internalType": "uint256",
              "name": "participants",
              "type": "uint256"
            },
            {
              "internalType": "bool",
              "name": "drawn",
              "type": "bool"
            },
            {
              "internalType": "address",
              "name": "owner",
              "type": "address"
            },
            {
              "internalType": "uint256",
              "name": "createdAt",
              "type": "uint256"
            },
            {
              "internalType": "uint256",
              "name": "expiresAt",
              "type": "uint256"
            }
          ],
          "internalType": "struct Giveaway.GiveawayData[]",
          "name": "Giveaways",
          "type": "tuple[]"
        }
      ],
      "stateMutability": "view",
      "type": "function"
    },
    {
      "inputs": [
        {
          "internalType": "uint256",
          "name": "id",
          "type": "uint256"
        },
        {
          "internalType": "string[]",
          "name": "luckyNumbers",
          "type": "string[]"
        }
      ],
      "name": "importLuckyNumbers",
      "outputs": [],
      "stateMutability": "nonpayable",
      "type": "function"
    },
    {
      "inputs": [],
      "name": "owner",
      "outputs": [
        {
          "internalType": "address",
          "name": "",
          "type": "address"
        }
      ],
      "stateMutability": "view",
      "type": "function"
    },
    {
      "inputs": [
        {
          "internalType": "uint256",
          "name": "id",
          "type": "uint256"
        },
        {
          "internalType": "uint256",
          "name": "numOfWinners",
          "type": "uint256"
        }
      ],
      "name": "randomlySelectWinners",
      "outputs": [],
      "stateMutability": "nonpayable",
      "type": "function"
    },
    {
      "inputs": [],
      "name": "renounceOwnership",
      "outputs": [],
      "stateMutability": "nonpayable",
      "type": "function"
    },
    {
      "inputs": [],
      "name": "serviceBalance",
      "outputs": [
        {
          "internalType": "uint256",
          "name": "",
          "type": "uint256"
        }
      ],
      "stateMutability": "view",
      "type": "function"
    },
    {
      "inputs": [],
      "name": "servicePercent",
      "outputs": [
        {
          "internalType": "uint256",
          "name": "",
          "type": "uint256"
        }
      ],
      "stateMutability": "view",
      "type": "function"
    },
    {
      "inputs": [
        {
          "internalType": "address",
          "name": "newOwner",
          "type": "address"
        }
      ],
      "name": "transferOwnership",
      "outputs": [],
      "stateMutability": "nonpayable",
      "type": "function"
    }
  ],
  "bytecode": "0x60806040523480156200001157600080fd5b506040516200262538038062002625833981016040819052620000349162000098565b6200003f3362000048565b600255620000b2565b600080546001600160a01b038381166001600160a01b0319831681178455604051919092169283917f8be0079c531659141344cd1fd0a4f28419497f9722a3daafe3b4186f6b6457e09190a35050565b600060208284031215620000ab57600080fd5b5051919050565b61256380620000c26000396000f3fe6080604052600436106100dd5760003560e01c80638da5cb5b1161007f578063e2e4351611610059578063e2e435161461024a578063e8d490f11461026a578063f227d93e14610280578063f2fde38b146102ad57600080fd5b80638da5cb5b146101d3578063abaae6b5146101fb578063b8a8af531461021d57600080fd5b8063501726eb116100bb578063501726eb1461013757806370b261ae1461016d578063715018a61461019157806383e3839d146101a657600080fd5b80630e83711c146100e2578063298ec2081461010457806335ea206314610117575b600080fd5b3480156100ee57600080fd5b506101026100fd366004611e76565b6102cd565b005b610102610112366004611f1a565b6105d9565b34801561012357600080fd5b50610102610132366004611f3c565b610857565b34801561014357600080fd5b5061015761015236600461200b565b6109e3565b604051610164919061206a565b60405180910390f35b34801561017957600080fd5b5061018360035481565b604051908152602001610164565b34801561019d57600080fd5b50610102610acf565b3480156101b257600080fd5b506101c66101c136600461200b565b610ae3565b604051610164919061214f565b3480156101df57600080fd5b506000546040516001600160a01b039091168152602001610164565b34801561020757600080fd5b50610210610c04565b6040516101649190612224565b34801561022957600080fd5b5061023d61023836600461200b565b610ee2565b6040516101649190612279565b34801561025657600080fd5b50610102610265366004611f1a565b61108d565b34801561027657600080fd5b5061018360025481565b34801561028c57600080fd5b506102a061029b36600461200b565b61168c565b60405161016491906122d2565b3480156102b957600080fd5b506101026102c83660046122e5565b6118cf565b600086511161031b5760405162461bcd60e51b81526020600482015260156024820152747469746c652063616e6e6f7420626520656d70747960581b60448201526064015b60405180910390fd5b600085511161036c5760405162461bcd60e51b815260206004820152601b60248201527f6465736372697074696f6e2063616e6e6f7420626520656d70747900000000006044820152606401610312565b60008451116103b55760405162461bcd60e51b8152602060048201526015602482015274696d6167652063616e6e6f7420626520656d70747960581b6044820152606401610312565b600083116103fc5760405162461bcd60e51b81526020600482015260146024820152737072697a652063616e6e6f74206265207a65726f60601b6044820152606401610312565b600082116104415760405162461bcd60e51b81526020600482015260126024820152716665652063616e6e6f74206265207a65726f60701b6044820152606401610312565b610449611948565b81116104a75760405162461bcd60e51b815260206004820152602760248201527f65787069726541742063616e6e6f74206265206c657373207468616e207468656044820152662066757475726560c81b6064820152608401610312565b6104b5600180546001019055565b6104bd611ca5565b60015481526020810187905260408101869052606081018590526080810184905260a08101839052336101008201526104f4611948565b6101208201526101408101829052805160009081526004602090815260409091208251815590820151829190600182019061052f9082612396565b50604082015160028201906105449082612396565b50606082015160038201906105599082612396565b506080820151600482015560a0820151600582015560c0820151600682015560e0820151600782018054610100808601516001600160a01b031602610100600160a81b0319931515939093166001600160a81b03199091161791909117905561012082015160088201556101409091015160099091015550505050505050565b600082815260066020908152604080832084845290915290205460ff16156106435760405162461bcd60e51b815260206004820152601960248201527f4c75636b79206e756d62657220616c72656164792075736564000000000000006044820152606401610312565b6000828152600460205260409020600501543410156106b65760405162461bcd60e51b815260206004820152602960248201527f696e73756666696369656e7420684261727320746f2062757920676976656177604482015268185e481d1a58dad95d60ba1b6064820152608401610312565b60008281526004602052604081206006018054916106d38361246c565b9091555050600082815260076020908152604080832081516060810183523381528685526005845291909320805491928301918590811061071657610716612485565b90600052602060002001805461072b9061230e565b80601f01602080910402602001604051908101604052809291908181526020018280546107579061230e565b80156107a45780601f10610779576101008083540402835291602001916107a4565b820191906000526020600020905b81548152906001019060200180831161078757829003601f168201915b50505091835250506000602091820181905283546001808201865594825290829020835160039092020180546001600160a01b0319166001600160a01b039092169190911781559082015191929091908201906108019082612396565b506040918201516002909101805491151560ff199283161790556000848152600660209081528382208583529052918220805490911660011790556003805434929061084e90849061249b565b90915550505050565b60008151116108a85760405162461bcd60e51b815260206004820152601c60248201527f4c75636b79206e756d626572732063616e6e6f74206265207a65726f000000006044820152606401610312565b60008281526004602052604090206007015461010090046001600160a01b0316331461090c5760405162461bcd60e51b8152602060048201526013602482015272556e617574686f72697a656420656e7469747960681b6044820152606401610312565b60008281526005602052604090205460011161095e5760405162461bcd60e51b8152602060048201526011602482015270105b1c9958591e4819d95b995c985d1959607a1b6044820152606401610312565b6000828152600460205260409020600601546001116109bf5760405162461bcd60e51b815260206004820152601c60248201527f476976656177617920466565732068617665206265656e2070616964000000006044820152606401610312565b600082815260056020908152604090912082516109de92840190611d0a565b505050565b606060056000838152602001908152602001600020805480602002602001604051908101604052809291908181526020016000905b82821015610ac4578382906000526020600020018054610a379061230e565b80601f0160208091040260200160405190810160405280929190818152602001828054610a639061230e565b8015610ab05780601f10610a8557610100808354040283529160200191610ab0565b820191906000526020600020905b815481529060010190602001808311610a9357829003601f168201915b505050505081526020019060010190610a18565b505050509050919050565b610ad7611969565b610ae160006119c3565b565b606060076000838152602001908152602001600020805480602002602001604051908101604052809291908181526020016000905b82821015610ac457600084815260209081902060408051606081019091526003850290910180546001600160a01b031682526001810180549293919291840191610b619061230e565b80601f0160208091040260200160405190810160405280929190818152602001828054610b8d9061230e565b8015610bda5780601f10610baf57610100808354040283529160200191610bda565b820191906000526020600020905b815481529060010190602001808311610bbd57829003601f168201915b50505091835250506002919091015460ff1615156020918201529082526001929092019101610b18565b6060610c0f60015490565b67ffffffffffffffff811115610c2757610c27611dbf565b604051908082528060200260200182016040528015610c6057816020015b610c4d611ca5565b815260200190600190039081610c455790505b50905060015b6001548111610ede57600460008281526020019081526020016000206040518061016001604052908160008201548152602001600182018054610ca89061230e565b80601f0160208091040260200160405190810160405280929190818152602001828054610cd49061230e565b8015610d215780601f10610cf657610100808354040283529160200191610d21565b820191906000526020600020905b815481529060010190602001808311610d0457829003601f168201915b50505050508152602001600282018054610d3a9061230e565b80601f0160208091040260200160405190810160405280929190818152602001828054610d669061230e565b8015610db35780601f10610d8857610100808354040283529160200191610db3565b820191906000526020600020905b815481529060010190602001808311610d9657829003601f168201915b50505050508152602001600382018054610dcc9061230e565b80601f0160208091040260200160405190810160405280929190818152602001828054610df89061230e565b8015610e455780601f10610e1a57610100808354040283529160200191610e45565b820191906000526020600020905b815481529060010190602001808311610e2857829003601f168201915b5050509183525050600482015460208201526005820154604082015260068201546060820152600782015460ff81161515608083015261010090046001600160a01b031660a0820152600882015460c082015260099091015460e09091015282610eb06001846124ae565b81518110610ec057610ec0612485565b60200260200101819052508080610ed69061246c565b915050610c66565b5090565b610f1f6040518060c00160405280600081526020016000151581526020016000151581526020016000815260200160008152602001606081525090565b6000828152600860209081526040808320815160c08101835281548152600182015460ff8082161515838701526101009091041615158184015260028201546060820152600382015460808201526004820180548451818702810187019095528085529195929460a0870194939192919084015b8282101561107f57600084815260209081902060408051606081019091526003850290910180546001600160a01b031682526001810180549293919291840191610fdc9061230e565b80601f01602080910402602001604051908101604052809291908181526020018280546110089061230e565b80156110555780601f1061102a57610100808354040283529160200191611055565b820191906000526020600020905b81548152906001019060200180831161103857829003601f168201915b50505091835250506002919091015460ff1615156020918201529082526001929092019101610f93565b505050915250909392505050565b60008281526004602052604090206007015461010090046001600160a01b03163314806110de575060008054838252600460205260409091206007015461010090046001600160a01b039081169116145b6111205760405162461bcd60e51b8152602060048201526013602482015272556e617574686f72697a656420656e7469747960681b6044820152606401610312565b60008281526008602052604090206001015460ff161561118e5760405162461bcd60e51b815260206004820152602360248201527f47697665617761792068617320616c7265616479206265656e20636f6d706c656044820152621d195960ea1b6064820152608401610312565b6000828152600760205260409020548111156112055760405162461bcd60e51b815260206004820152603060248201527f4e756d626572206f662077696e6e6572732065786365656473206e756d62657260448201526f206f66207061727469636970616e747360801b6064820152608401610312565b60008167ffffffffffffffff81111561122057611220611dbf565b60405190808252806020026020018201604052801561128057816020015b61126d604051806060016040528060006001600160a01b03168152602001606081526020016000151581525090565b81526020019060019003908161123e5790505b509050600060076000858152602001908152602001600020805480602002602001604051908101604052809291908181526020016000905b828210156113a457600084815260209081902060408051606081019091526003850290910180546001600160a01b0316825260018101805492939192918401916113019061230e565b80601f016020809104026020016040519081016040528092919081815260200182805461132d9061230e565b801561137a5780601f1061134f5761010080835404028352916020019161137a565b820191906000526020600020905b81548152906001019060200180831161135d57829003601f168201915b50505091835250506002919091015460ff16151560209182015290825260019290920191016112b8565b5050505090506000815167ffffffffffffffff8111156113c6576113c6611dbf565b6040519080825280602002602001820160405280156113ef578160200160208202803683370190505b50905060005b825181101561142e578082828151811061141157611411612485565b6020908102919091010152806114268161246c565b9150506113f5565b5060006001835161143f91906124ae565b90505b6001811061152257600061145782600161249b565b61145f611948565b60408051602081019290925281018490526060016040516020818303038152906040528051906020012060001c61149691906124d7565b905060008382815181106114ac576114ac612485565b602002602001015190508383815181106114c8576114c8612485565b60200260200101518483815181106114e2576114e2612485565b6020026020010181815250508084848151811061150157611501612485565b6020026020010181815250505050808061151a906124eb565b915050611442565b5060005b8481101561162a578282828151811061154157611541612485565b60200260200101518151811061155957611559612485565b602002602001015184828151811061157357611573612485565b6020026020010181905250600860008781526020019081526020016000206004018482815181106115a6576115a6612485565b602090810291909101810151825460018082018555600094855293839020825160039092020180546001600160a01b0319166001600160a01b039092169190911781559181015190928201906115fc9082612396565b50604091909101516002909101805460ff1916911515919091179055806116228161246c565b915050611526565b5060008581526008602052604090206001908101805460ff19169091179055611651611948565b6000868152600860209081526040808320600201939093556004905220600701805460ff1916600117905561168585611a13565b5050505050565b611694611ca5565b6004600083815260200190815260200160002060405180610160016040529081600082015481526020016001820180546116cd9061230e565b80601f01602080910402602001604051908101604052809291908181526020018280546116f99061230e565b80156117465780601f1061171b57610100808354040283529160200191611746565b820191906000526020600020905b81548152906001019060200180831161172957829003601f168201915b5050505050815260200160028201805461175f9061230e565b80601f016020809104026020016040519081016040528092919081815260200182805461178b9061230e565b80156117d85780601f106117ad576101008083540402835291602001916117d8565b820191906000526020600020905b8154815290600101906020018083116117bb57829003601f168201915b505050505081526020016003820180546117f19061230e565b80601f016020809104026020016040519081016040528092919081815260200182805461181d9061230e565b801561186a5780601f1061183f5761010080835404028352916020019161186a565b820191906000526020600020905b81548152906001019060200180831161184d57829003601f168201915b5050509183525050600482015460208201526005820154604082015260068201546060820152600782015460ff81161515608083015261010090046001600160a01b031660a0820152600882015460c082015260099091015460e09091015292915050565b6118d7611969565b6001600160a01b03811661193c5760405162461bcd60e51b815260206004820152602660248201527f4f776e61626c653a206e6577206f776e657220697320746865207a65726f206160448201526564647265737360d01b6064820152608401610312565b611945816119c3565b50565b600080611957426103e8612502565b611963906103e861249b565b92915050565b6000546001600160a01b03163314610ae15760405162461bcd60e51b815260206004820181905260248201527f4f776e61626c653a2063616c6c6572206973206e6f7420746865206f776e65726044820152606401610312565b600080546001600160a01b038381166001600160a01b0319831681178455604051919092169283917f8be0079c531659141344cd1fd0a4f28419497f9722a3daafe3b4186f6b6457e09190a35050565b600081815260086020908152604080832060040180548251818502810185019093528083529192909190849084015b82821015611b2e57600084815260209081902060408051606081019091526003850290910180546001600160a01b031682526001810180549293919291840191611a8b9061230e565b80601f0160208091040260200160405190810160405280929190818152602001828054611ab79061230e565b8015611b045780601f10611ad957610100808354040283529160200191611b04565b820191906000526020600020905b815481529060010190602001808311611ae757829003601f168201915b50505091835250506002919091015460ff1615156020918201529082526001929092019101611a42565b50505060008481526007602090815260408083205460049092528220600501549394509092611b5d9250612502565b90506000606460025483611b719190612502565b611b7b9190612519565b90506000611b8982846124ae565b90506000845182611b9a9190612519565b905060005b8551811015611be157611bcf868281518110611bbd57611bbd612485565b60200260200101516000015183611c45565b80611bd98161246c565b915050611b9f565b50611bfd611bf76000546001600160a01b031690565b84611c45565b8360036000828254611c0f91906124ae565b9091555050600086815260086020526040902095865560018601805461ff00191661010017905560039095019490945550505050565b6000826001600160a01b03168260405160006040518083038185875af1925050503d8060008114611c92576040519150601f19603f3d011682016040523d82523d6000602084013e611c97565b606091505b50509050806109de57600080fd5b6040518061016001604052806000815260200160608152602001606081526020016060815260200160008152602001600081526020016000815260200160001515815260200160006001600160a01b0316815260200160008152602001600081525090565b828054828255906000526020600020908101928215611d50579160200282015b82811115611d505782518290611d409082612396565b5091602001919060010190611d2a565b50610ede9291505b80821115610ede576000611d6c8282611d75565b50600101611d58565b508054611d819061230e565b6000825580601f10611d91575050565b601f01602090049060005260206000209081019061194591905b80821115610ede5760008155600101611dab565b634e487b7160e01b600052604160045260246000fd5b604051601f8201601f1916810167ffffffffffffffff81118282101715611dfe57611dfe611dbf565b604052919050565b600082601f830112611e1757600080fd5b813567ffffffffffffffff811115611e3157611e31611dbf565b611e44601f8201601f1916602001611dd5565b818152846020838601011115611e5957600080fd5b816020850160208301376000918101602001919091529392505050565b60008060008060008060c08789031215611e8f57600080fd5b863567ffffffffffffffff80821115611ea757600080fd5b611eb38a838b01611e06565b97506020890135915080821115611ec957600080fd5b611ed58a838b01611e06565b96506040890135915080821115611eeb57600080fd5b50611ef889828a01611e06565b945050606087013592506080870135915060a087013590509295509295509295565b60008060408385031215611f2d57600080fd5b50508035926020909101359150565b60008060408385031215611f4f57600080fd5b8235915060208084013567ffffffffffffffff80821115611f6f57600080fd5b818601915086601f830112611f8357600080fd5b813581811115611f9557611f95611dbf565b8060051b611fa4858201611dd5565b918252838101850191858101908a841115611fbe57600080fd5b86860192505b83831015611ffa57823585811115611fdc5760008081fd5b611fea8c89838a0101611e06565b8352509186019190860190611fc4565b809750505050505050509250929050565b60006020828403121561201d57600080fd5b5035919050565b6000815180845260005b8181101561204a5760208185018101518683018201520161202e565b506000602082860101526020601f19601f83011685010191505092915050565b6000602080830181845280855180835260408601915060408160051b870101925083870160005b828110156120bf57603f198886030184526120ad858351612024565b94509285019290850190600101612091565b5092979650505050505050565b600081518084526020808501808196508360051b8101915082860160005b85811015612142578284038952815180516001600160a01b031685528581015160608787018190529061211f82880182612024565b6040938401511515979093019690965250988501989350908401906001016120ea565b5091979650505050505050565b60208152600061216260208301846120cc565b9392505050565b600061016082518452602083015181602086015261218982860182612024565b915050604083015184820360408601526121a38282612024565b915050606083015184820360608601526121bd8282612024565b9150506080830151608085015260a083015160a085015260c083015160c085015260e08301516121f160e086018215159052565b50610100838101516001600160a01b03169085015261012080840151908501526101409283015192909301919091525090565b6000602080830181845280855180835260408601915060408160051b870101925083870160005b828110156120bf57603f19888603018452612267858351612169565b9450928501929085019060010161224b565b602081528151602082015260208201511515604082015260408201511515606082015260608201516080820152608082015160a0820152600060a083015160c0808401526122ca60e08401826120cc565b949350505050565b6020815260006121626020830184612169565b6000602082840312156122f757600080fd5b81356001600160a01b038116811461216257600080fd5b600181811c9082168061232257607f821691505b60208210810361234257634e487b7160e01b600052602260045260246000fd5b50919050565b601f8211156109de57600081815260208120601f850160051c8101602086101561236f5750805b601f850160051c820191505b8181101561238e5782815560010161237b565b505050505050565b815167ffffffffffffffff8111156123b0576123b0611dbf565b6123c4816123be845461230e565b84612348565b602080601f8311600181146123f957600084156123e15750858301515b600019600386901b1c1916600185901b17855561238e565b600085815260208120601f198616915b8281101561242857888601518255948401946001909101908401612409565b50858210156124465787850151600019600388901b60f8161c191681555b5050505050600190811b01905550565b634e487b7160e01b600052601160045260246000fd5b60006001820161247e5761247e612456565b5060010190565b634e487b7160e01b600052603260045260246000fd5b8082018082111561196357611963612456565b8181038181111561196357611963612456565b634e487b7160e01b600052601260045260246000fd5b6000826124e6576124e66124c1565b500690565b6000816124fa576124fa612456565b506000190190565b808202811582820484141761196357611963612456565b600082612528576125286124c1565b50049056fea26469706673582212200c34a7d61898060d7fc77d89d24604fb7243e8376bf00a9b89d4f7ff8da5049064736f6c63430008110033",
  "linkReferences": {},
  "deployedLinkReferences": {}
}